:040000008A15002835
:0C000600000000000000000000000800E6
:10001200243083120313FC00B530FD00FD0B0F28C2
:0A002200FC0B0F280000000008008E
:0E002C00533083120313FD00FD0B1A28080049
:10003A007408F8027508031C750FF9027608031C88
:10004A00760FFA027708031C770FFB02F30D0730CD
:10005A00FC00730DF80DF90DFA0DFB0D7408731CF5
:10006A004428F8027508031C750FF9027608031C68
:10007A00760FFA027708031C770FFB025128F8075C
:10008A0075080318750FF90776080318760FFA072B
:10009A0077080318770FFB07F30DFC0B2E28720D58
:1000AA00F80DF90DFA0DFB0D7408731C6A28F80295
:1000BA007508031C750FF9027608031C760FFA02FD
:1000CA007708031C770FFB027728F80775080318CF
:1000DA00750FF90776080318760FFA0777080318D9
:1000EA00770FFB07F20D0730FC00720DF80DF90DC2
:1000FA00FA0DFB0D7408721C9028F8027508031C8F
:10010A00750FF9027608031C760FFA027708031CAA
:10011A00770FFB029D28F80775080318750FF90772
:10012A0076080318760FFA0777080318770FFB0784
:10013A00F20DFC0B7A28710DF80DF90DFA0DFB0D75
:10014A007408721CB628F8027508031C750FF902A8
:10015A007608031C760FFA027708031C770FFB0256
:10016A00C328F80775080318750FF90776080318E6
:10017A00760FFA0777080318770FFB07F10D073098
:10018A00FC00710DF80DF90DFA0DFB0D7408711CC8
:10019A00DC28F8027508031C750FF9027608031C9F
:1001AA00760FFA027708031C770FFB02E928F80793
:1001BA0075080318750FF90776080318760FFA07FA
:1001CA0077080318770FFB07F10DFC0BC628700D93
:1001DA00F80DF90DFA0DFB0D7408711C0229F802CD
:1001EA007508031C750FF9027608031C760FFA02CC
:1001FA007708031C770FFB020F29F8077508031805
:10020A00750FF90776080318760FFA0777080318A7
:10021A00770FFB07F00D0730FC00700DF80DF90D94
:10022A00FA0DFB0D7408701C2829F8027508031CC6
:10023A00750FF9027608031C760FFA027708031C79
:10024A00770FFB023529F80775080318750FF907A8
:10025A0076080318760FFA0777080318770FFB0753
:10026A00F00DFC0B1229701848297408F807750854
:10027A000318750FF90776080318760FFA07770837
:08028A000318770FFB070800C1
:10029200FB09FA09F909F809F80A0319F90A031915
:0802A200FA0A0319FB0A080027
:1002AA0083160313BD1B5C29831286135E298312EE
:1002BA00861783163D1B6429831206136629831247
:1002CA0006178316BD1A6C29831286126E298312A9
:1002DA00861683163D1A742983120612762983120A
:1002EA0006165B187A2908177B2908138817032032
:1002FA0088138316BD1984298312861386298312CB
:10030A00861783163D198C29831206138E298312A8
:10031A0006178316BD18942983128612962983120A
:10032A00861683163D189C29831206129E2983126B
:10033A0006165B18A2290817A32908138817032091
:0E034A0088135B1CAA290920AB291620080085
:10035800831203137408003A031DC7297508003A6D
:10036800031DC7297608003A031DC7297708003AF4
:10037800031DC729FF30F000FF30F100FF30F20005
:100388007F30F300602A83120313FC01F71BFC0A79
:10039800FD01FB01FA01F901F80173087204710407
:1003A800700403195B2A73087706A000A01BFD09D7
:1003B800F71FE929F409F509F609F709F40A0319F9
:1003C800F50A0319F60A0319F70AF31FF629F009C3
:1003D800F109F209F309F00A0319F10A0319F20AFB
:1003E8000319F30A73087704A000A01B172A1D201D
:1003F800FC1B342AFD1F5B2AF009F109F209F309F5
:10040800F00A0319F10A0319F20A0319F30AF809A1
:10041800F909FA09FB09F80A0319F90A0319FA0A8A
:100428000319FB0A5B2AF71F2E2AF31B282A7308D5
:10043800FB007208FA007108F9007008F800F3016F
:10044800F201F101F001FE29F301F201F101F001DD
:10045800F00A0034F309F209F109F009FC17FB2945
:10046800F80A0319F90A0319FA0A0319FB0A7408A6
:100478007802031DFE2975087902031DFE297608F6
:100488007A02031DFE2977087B02031DFE29FB0162
:10049800FA01F901F801F00A0319F10A0319F20A3D
:1004A8000319F30AF31FFE29A0012016FF34A00147
:0A04B8007C1C5F2A4921003E080069
:1004C200831203135B1083163C08BD0055215B1495
:0204D200080020
:1004D4007C2A803083120313ED008F2AC030ED0094
:1004E4008F2A9430ED008F2AD430ED008F2A80308B
:1004F400ED008F2A831203136D08013A03196B2A46
:100504006D08023A0319702A6D08033A0319732A15
:100514006D08043A0319762A792A6E03F0006D08EF
:10052400F0077008ED0070088316BD0055215B10BC
:100534008316AC012C0883126F078400000803198A
:10054400AF2A83162C0883126F07840000088316D1
:10055400BC0061228316AC0A9C2A83125B14080037
:0E056400831203135A088A0059088200080007
:1005720083120313ED010030F00083162F06031DD2
:10058200CC2A70082E06031DCC2A70082D06031DE6
:10059200CC2A2C08003A031DD22A3030BC0061223A
:1005A200602B803083162F06F00080307002031D0E
:1005B200E42A00302E02031DE42A00302D02031D1E
:1005C200E42A00302C020318042B2D30BC006122D7
:1005D200F001F101F201F30183162C08F0022D085B
:1005E200031C2D0FF1022E08031C2E0FF2022F08FE
:1005F200031C2F0FF3027008AC007108AD007208E3
:10060200AE007308AF008030F00080302F06700219
:10061200031D152B2E08003C031D152B2D08003C35
:10062200031D152B2C08003C0318522B83126D0856
:10063200B03EEE000A30F400F501F601F701831630
:100642002C08F0002D08F1002E08F2002F08F3000C
:10065200AC217808F0007908F1007A08F2007B08F2
:10066200F3003030F0076E08840070088000ED0A55
:100672000A30F400F501F601F70183162C08F000A8
:100682002D08F1002E08F2002F08F300AC217008AB
:100692008316AC007108AD007208AE007308AF009B
:1006A200042B83126D08003C0318602BED036D08C8
:1006B200B03E840000088316BC006122522B080061
:1006C200831203132230FC00F801F901FA01FB0145
:1006D200FC030319972B0310FB0CFA0CF90CF80C12
:1006E200F30CF20CF10CF00C031C692BFC03031944
:1006F200892B7408F80775080318750FF90776082F
:100702000318760FFA0777080318770FFB076D2B8C
:100712007408F80775080318750FF90776080318A7
:0E072200760FFA0777080318770FFB07080019
:1007300083120313F3010430730203180E2C0F30DD
:1007400087007308F1000130F00071080319AC2B29
:10075000F00D7010FF3EA62BF009700887051030D1
:10076000FD00FD0BB12B0000F401043074020318EE
:100770000C2C04307407F000F1010318F10A700822
:10078000F2000130F0000030F10072080319CD2BA7
:10079000F00DF10D7010FF3EC62B0708F00500307C
:1007A000F10570087104031D0A2C6230FC006530ED
:1007B000FD00FD0BD92BFC0BD92B000000000430F1
:1007C0007407F000F1010318F10A7008F20001301B
:1007D000F0000030F10072080319F32BF00DF10D59
:1007E0007010FF3EEC2B0708F0050030F105700893
:1007F0007104031DFC2BDF2B7308F000F00D70104B
:10080000F00D70102D30F007740870078400000898
:10081000F0000F2CF40AB52BF30A9B2BF001080013
:10082000643083120313F400F501F601F701831617
:100830002008F0002108F1002208F2002308F3004C
:10084000AC2170088316A4007108A5007208A600E8
:100850007308A7006430F400F501F601F7012008E1
:10086000F0002108F1002208F2002308F300AC2177
:100870007808F0007908F1007A08F2007B08F300AC
:1008800070088316A8007108A9007208AA007308EE
:10089000AB0002308312ED000130EE004830EF0073
:1008A0006A22C0308316BD00552183162408AC008F
:1008B0002508AD002608AE002708AF00B922003099
:1008C000F00083162B06031D6F2C70082A06031DEB
:1008D0006F2C70082906031D6F2C2808003A031995
:1008E000952C2E30BC006122803083162B06F00040
:1008F00080307002031D862C00302A02031D862CD6
:1009000000302902031D862C0A30280203188B2C84
:100910003030BC00612283162808AC002908AD00E5
:0C0920002A08AE002B08AF00B922080026
:10092C0083160313881308130612861206138613F4
:10093C0083128813081386130613861206120920D5
:10094C00092009208616061688170320881309200B
:10095C00881703208813092088170320881309207F
:10096C000612881703208813092088170320881380
:10097C0086128617881703208813092086130616FB
:10098C008817032088130612881703208813092060
:10099C00881703208813061688170320881309204C
:1009AC000612881703208813861706178616061654
:0C09BC0088170320881309205B14080032
:1009C800B2228A110A128000840AD90A0319DA0AA3
:0809D800F003031DE42C0800EC
:100A500021308400383083120313F000F030D900C5
:080A60000430DA00E424080070
:101000008A1128258A1583120313DC01DD01DE0114
:10101000DF01E001E101E201E301E401E501E601B4
:10102000E701E801E90183168601F03087008801B5
:1010300083128601870188018A1196248A1501305E
:101040008316BD008A1155218A150C308316BD0008
:101050008A1155218A150130ED000130EE003D3036
:10106000EF008A116A228A151A30FB005E30FC00FC
:101070006E30FD00FD0B3A28FC0B3A28FB0B3A289A
:10108000000001308316BD008A1155218A158A118E
:1010900098238A157008EA007008031D5028472815
:1010A0006A08EB006A08413A031D59282B30EB000F
:1010B0007B286A08423A031D60282D30EB007B280C
:1010C0006A08433A031D67282A30EB007B286A0828
:1010D000443A031D6E282F30EB007B286A08233A20
:1010E000031D75283D30EB007B286A082A3A031D52
:1010F0007B284330EB0030306B02031C25296B0842
:10110000393C031C252930306B02EC006908031DB3
:10111000CB285C08F0005D08F1005E08F2005F0873
:10112000F3000A30F400F501F601F7018A1161239A
:101130008A156C08DC00DD01DE01DF017008DC07C8
:1011400071080318710FDD0772080318720FDE07AC
:1011500073080318730FDF0701308316BD008A116F
:1011600055218A1580308316BD008A1155218A15B4
:101170005C088316AC0083125D088316AD008312F1
:101180005E088316AE0083125F088316AF008A11D3
:10119000B9228A1524296008F0006108F10062086C
:1011A000F2006308F3000A30F400F501F601F701DC
:1011B0008A1161238A156C08E000E101E201E30174
:1011C0007008E00771080318710FE107720803182F
:1011D000720FE20773080318730FE30701308316D9
:1011E000BD008A1155218A1580308316BD008A11F1
:1011F00055218A155C088316AC0083125D0883169E
:10120000AD0083125E088316AE0083125F0883165A
:10121000AF008A11B9228A1568088316BC008A11AA
:1012200061228A1560088316AC0083126108831658
:10123000AD00831262088316AE0083126308831622
:10124000AF008A11B9228A15C52A6B082B3A0319F7
:1012500036296B082D3A031936296B082A3A0319E7
:1012600036296B082F3A031936295F296B08E800E5
:101270000130E90001308316BD008A1155218A151D
:1012800080308316BD008A1155218A155C088316AB
:10129000AC0083125D088316AD0083125E088316CE
:1012A000AE0083125F088316AF008A11B9228A1537
:1012B00068088316BC008A1161228A15C52A6B084A
:1012C0003D3A031DAD2A68082B3A031D8E295C08A0
:1012D000F0005D08F1005E08F2005F08F3006008AE
:1012E000F00761080318610FF10762080318620F25
:1012F000F20763080318630FF3076430F400F50185
:10130000F601F7018A1161238A157008E40071085B
:10131000E5007208E6007308E700402A68082D3AE5
:10132000031DB9295C08F0005D08F1005E08F200B9
:101330005F08F3006008F0026108031C610FF1020E
:101340006208031C620FF2026308031C630FF302BE
:101350006430F400F501F601F7018A1161238A1562
:101360007008E4007108E5007208E6007308E70001
:10137000402A68082A3A031DE1295C08F0005D084C
:10138000F1005E08F2005F08F3006008F4006108F5
:10139000F5006208F6006308F7008A1161238A15D8
:1013A0006430F400F501F601F7018A1161238A1512
:1013B0007008E4007108E5007208E6007308E700B1
:1013C000402A68082F3A031D402A0030F0006306C7
:1013D000031DF42970086206031DF42970086106D4
:1013E000031DF4296008003A031D1D2A01308316ED
:1013F000BD008A1155218A150130ED000130EE0043
:101400002130EF008A116A228A152730FB000D3047
:10141000FC002630FD00FD0B0B2AFC0B0B2AFB0BFE
:101420000B2A0000DC01DD01DE01DF01E001E1014A
:10143000E201E301E801E90147285C08F0005D08EA
:10144000F1005E08F2005F08F3006430F400F5017B
:10145000F601F7018A1161238A156008F40061081A
:10146000F5006208F6006308F7008A11AC218A15BE
:101470007008E4007108E5007208E6007308E700F0
:1014800001308316BD008A1155218A1580308316DC
:10149000BD008A1155218A155C088316AC008312A1
:1014A0005D088316AD0083125E088316AE008312BA
:1014B0005F088316AF008A11B9228A15680883165F
:1014C000BC008A1161228A1560088316AC00831261
:1014D00061088316AD00831262088316AE00831282
:1014E00063088316AF008A11B9228A15640883162F
:1014F000A000831265088316A10083126608831674
:10150000A200831267088316A3008A1110248A158B
:10151000333083120313FB00BB30FC00DF30FD00CF
:10152000FD0B902AFC0B902AFB0B902A0000000078
:10153000DC01DD01DE01DF01E001E101E201E301A7
:10154000E401E501E601E701E801E9010130831664
:10155000BD008A1155218A15C52A6B08433A031D1F
:10156000C52ADC01DD01DE01DF01E001E101E2016C
:10157000E301E401E501E601E701E801E9010130E9
:0E1580008316BD008A1155218A154728C62AF8
:1009E00044344934563420344234593420345A344F
:0809F000453452344F34003449
:1009F8003134323433344134343435343634423497
:100A080037343834393443342A3430342334443492
:100A1800433461346C34633475346C346134743405
:060A28006F34723400344B
:100A2E002034203420342034203420342034203418
:100A3E002034203420342034203420342034203408
:020A4E00003472
:02400E00CA2FB7
:00000001FF
